:020000040800F2
:100000000004002047010008CF110008770E000807
:10001000CD110008BB090008D91400080000000039
:10002000000000000000000000000000791300083C
:10003000BD09000800000000D1110008611400088B
:1000400067010008670100086701000867010008F0
:1000500067010008670100086701000867010008E0
:1000600067010008670100086701000867010008D0
:1000700067010008670100086701000867010008C0
:1000800067010008670100086701000867010008B0
:1000900067010008670100086701000867010008A0
:1000A0006701000867010008670100086701000890
:1000B0006701000867010008670100086701000880
:1000C0006701000867010008670100086701000870
:1000D0006701000867010008670100086701000860
:1000E0006701000867010008670100086701000850
:1000F0006701000867010008670100086701000840
:10010000670100086701000867010008670100082F
:10011000670100086701000867010008670100081F
:10012000670100086701000867010008670100080F
:10013000DFF80CD000F0E2FB00480047651E000825
:10014000F0BC0020704708488047084981F30888C0
:1001500007480047FEE7FEE7FEE7FEE7FEE7FEE7AB
:10016000FEE7FEE7FEE7FEE745010008F0BC0020E1
:100170003101000840EA01039B0703D009E008C9E8
:10018000121F08C0042AFAD203E011F8013B00F85C
:10019000013B521EF9D27047F0B480EA0102D40F3D
:1001A0004200B2EB410F02D20246084611464A0015
:1001B00042D0C30DDDB2C1F3C752AD1A202D35DADE
:1001C000C1F3160141F4000204B15242C5F1200608
:1001D00002FA06F12A411044B3EBD05F23D0C4B138
:1001E000012DA0EBC35009DCF0BC4FF0004202EA45
:1001F000C352DBB200F5000000F0DFBA400000F1AE
:10020000807000EBC350A0F1807040EAD1704900CB
:1002100009E0490841EAC071A0EBC35000F50000B5
:10022000400800EBC350F0BC00F0BEBA61420122AE
:1002300002EB4101001BF6E7F0BC704781F0004182
:10024000AAE780F00040A7E780EA010210B502F0BB
:100250000043400022D04A001FD0010E01EB126182
:10026000C0F35600C2F3560240F4000042F400020C
:10027000A0FB022000047F39140400D0401C50EA87
:10028000124001D44000491EC2B20C0604EBD0104B
:10029000401C4008802A02D003E0002010BD20F05E
:1002A0000100002900DA0020184310BD30B480EAB4
:1002B000010202F0004530F0004221F0004013D06E
:1002C00090B1C30DD40DC2F31601C0F31600E41AA9
:1002D00041F4000140F400027D34914201D3641CDA
:1002E00000E04900002C02DA30BC002070474FF4D7
:1002F00000000023914201D3891A034340084FEACA
:100300004101F7D151B1914202D14FF0004105E0D6
:1003100002D24FF0010101E06FF0010103EBC45084
:10032000284430BC00F040BA2DE9FE4F804681EAF7
:100330000300C00F0C46009021F0004123F000455F
:10034000B8EB0200A94105D24046214690461C4622
:100350000B46024623F00040104347D0270DC7F359
:100360000A00C3F30A510290401A019040286BDA48
:10037000C3F3130040F4801B0098924620B1002381
:10038000D2EB030A63EB0B0B01985946C0F1400214
:10039000504600F0E8F906460D4650465946019A87
:1003A00000F0F0F910EB08006141002487EA1152D7
:1003B00084EAE7731A4340D0009A62B3019A012A93
:1003C0004FEA075215DC001B61EB02014FF00042BF
:1003D00002EA0752CDE90042001C41F58011324685
:1003E0002B4600F025FA03B0BDE8F08F40462146C9
:1003F000F9E7001B61EB0201001C41F580130018B6
:100400005B412018A2F5001747EB030140EAD570C5
:10041000B6196D4111E06D084FEA360645EAC07520
:100420004FEA0752001B61EB0201001C41F58011ED
:1004300049084FEA30000019514132462B4603B0BB
:10044000BDE8F04F00F0E7B900980122400000231A
:10045000D0EB020263EBE073009821464FEAE074B0
:10046000B8EB000061EB0401E9E783F000435BE7D0
:1004700081F0004158E72DE9FE4F81EA030404F0C2
:10048000004421F0004100944FF0000B23F00043A2
:1004900050EA01045ED052EA03045BD0C3F30A546D
:1004A000C1F30A552C44A4F2F3340194A0FB025486
:1004B000C1F3130141F48011C3F3130343F4801318
:1004C00001FB024400FB034E840A970A44EA81546C
:1004D00047EA8357A4FB076802958D0A05FB078549
:1004E0004FEA932C04FB0C542705029D4FEA065853
:1004F00047EA1637B5EB08056EEB070C870E920E30
:1005000047EA811742EA8312A7FB0201B6EB0B010F
:1005100064EB00042B0D43EA0C335E1844EB1C50D3
:10052000DA465146E7FB0201C5F313044FEA0B33E9
:1005300043EA14534FEA0432019C43EA0603A4F150
:100540000C040294009CCDE900B400F071F903B0F2
:10055000BDE8F08F00200146F9E72DE9F04D81EA72
:10056000030404F0004B21F0004514464FF0000A4C
:1005700023F0004150EA050220D054EA01021DD0C8
:10058000C5F30A570246C5F31303C1F31300C1F3C1
:100590000A5640F4801543F48013A7EB0608101B9D
:1005A000D64608F2FD3873EB050002D308F10108C6
:1005B00001E092185B41B8F1000F03DA0020014618
:1005C000BDE8F08D00204FF48011064684460EE011
:1005D000171B73EB050705D3121B63EB05030643DB
:1005E0004CEA010C49084FEA300092185B4150EA8E
:1005F0000107EDD152EA030012D082EA040083EA37
:100600000501084305D0101BAB4106D2012200238F
:1006100006E000224FF0004302E06FF001025310A9
:100620001AEB06004CEB085110EB0A0041EB0B01F2
:10063000BDE8F04D00F0EFB8C10F80EAE07008446B
:10064000CA079623002100F0B8B800F0004220F05D
:100650000040C10DC0F3160040F400007F2901DA0C
:1006600000207047962903DCC1F19601C84001E0E3
:1006700096398840002AF4D04042704700F000428A
:1006800030F000400AD0C10D01F56071C0F31600D2
:1006900042EA0151C2084007114370470020014659
:1006A000704701F0004330B421F0004150EA0102EC
:1006B00006D00A0DA2F56072C1F31301002A02DC14
:1006C00030BC00207047440F44EAC104C100E01868
:1006D00030BC00EBC25000F067B80000002801DB1E
:1006E000C0F10040002901DBC1F1004181427047A7
:1006F000002801DBC0F10040002901DBC1F100410D
:10070000884270472DE9F05F0546002092469B46DF
:1007100088460646814640241BE028464146474617
:10072000224600F0FDF853465A46C01A914110D3B4
:1007300011461846224600F016F82D1A67EB0108FC
:100740004F4622460120002100F00DF817EB00096A
:100750004E41201EA4F10104DFDC484631462A4602
:100760004346BDE8F09F202A04DB203A00FA02F15C
:10077000002070479140C2F1200320FA03F319438F
:1007800090407047202A06DBCB17203A41FA02F04E
:1007900043EAE07306E041FA02F3D040C2F12002DE
:1007A00091400843194670470029A8BF7047401C74
:1007B000490008BF20F00100704710B4B0FA80FC77
:1007C00000FA0CF050EA010404BF10BC704749B1B4
:1007D000CCF1200421FA04F411FA0CF118BF012124
:1007E00021430843A3EB0C01CB1D4FEA00614FEA04
:1007F000102042BF002010BC704700EBC3501044D3
:100800000029A4BF10BC7047401C490008BF20F05D
:10081000010010BC704710B5002B08DA401C41F1F4
:10082000000192185B411A4301D120F0010010BD74
:100830002DE9F04D92469B4611B1B1FA81F202E0EA
:10084000B0FA80F220329046FFF78DFF04460F4643
:1008500040EA0A0041EA0B0153465A46084313D0C6
:10086000114653EA010019D0C8F14002504600F089
:1008700057F805460E46504659464246FFF773FF65
:10088000084305D0012004E020463946BDE8F08D3C
:100890000020054346EAE0762C4337430A98630577
:1008A000E40AA0EB08000022FD0A44EA47540A309B
:1008B00002D500200146E9E7010510196941DDE98B
:1008C000084500196941BDE8F04DA4E770B521F075
:1008D000004303430CD0C1F30A550024D5EB0405B3
:1008E00064EB0403D617AD1AB34102DB00200146C6
:1008F00070BD201841EB025170BD0000064C074D41
:1009000006E0E06840F0010394E8070098471034DF
:10091000AC42F6D3FFF710FCB8250008D825000834
:10092000202A04DB203A21FA02F00021704721FA44
:1009300002F3D040C2F120029140084319467047AB
:100940000EB5C10F80EAE0700844CA07002140F2EA
:1009500033438DE80E000A460B46FFF769FF03B0EC
:1009600000BD0EB540F2334102910021CDE90011E6
:100970000A460B46FFF75CFF03B000BD70B5C1F33C
:100980000A5201F000450024C1F3130140F2FF3385
:1009900041F480119A4201DA002070BD40F23343E5
:1009A0009A42A2F2334203DC5242FFF7B9FF00E061
:1009B00090402C43F1D0404270BDFEE7704701B536
:1009C000009801E0401E00900028FBD108BD000007
:1009D0004FF0E020806930B16FF07F41081A00EBE2
:1009E0000011C1EBC0104FF47A71B0FBF1F0014976
:1009F00008607047040000202DE9F05F0E461C4699
:100A0000154680461146FFF71CFC814631462046BC
:100A1000FFF714FC074619F0FF4F4FF07E5A02D142
:100A200017F0FF4F0DD027F0004129F00040FFF7ED
:100A30005FFE3AD229464046FFF750FE0ED24446AA
:100A40000EE03046FFF701FE04464046FFF7FDFD8D
:100A500021460A9ABDE8F05F00F0ACBB2C46454643
:100A600049463846FFF722FC814618E021464046B9
:100A7000FFF7E7FB4946FFF7E7FB3146FFF78CFB43
:100A8000FFF7E3FD07462046FFF7DFFD39460A9AE8
:100A900000F090FB51462046FFF77EFB04462946B6
:100AA0002046FFF71BFE2FD8E0E721463046FFF730
:100AB00015FE01D2354601E0254634463946484602
:100AC000FFF7F4FB83461AE031462846FFF7B6FBF2
:100AD0005946FFF7B9FB4146FFF75EFB074628463C
:100AE000FFF7B3FD81463846FFF7AFFD49460A9A46
:100AF00000F060FB51462846FFF74EFB05462146B5
:100B00002846FFF7EBFDDFD9BDE8F09F2DE9F84F50
:100B100004460078002849D0002522E0FFF78CFD2C
:100B200004EBC5060746716AFFF736FB814660682D
:100B3000FFF782FD8246316AFFF72EFB804638467A
:100B4000F169FFF729FB07465046B169FFF724FB1F
:100B5000616900914B4642463946FFF74DFF6D1CD7
:100B6000EDB26078401EA842A068D7DCFFF764FDB4
:100B70000546616DFFF710FB07466068FFF75CFDF7
:100B80008046216DFFF708FB06462846E169FFF71E
:100B900003FB05464046A169FFF7FEFA6169009133
:100BA0003B4632462946FFF727FF0120BDE8F88F74
:100BB00000B597B002200F9000200521CDE910016B
:100BC0004FF08051CDE9140112901390082100904C
:100BD000CDE901011021CDE903100590090206902D
:100BE000CDE9070109900A900C900FA80D900E9086
:100BF000684600F017F80121002000F003F817B054
:100C000000BD00008000A0F1C0400029016802D0B2
:100C100041F0010101E0024A11400160704700000B
:100C2000FEFF0F0010B5D0E901121143D0E90323F4
:100C30001A4311434269114382691143C269114346
:100C4000026A1143426A1143826A1143026B1143E3
:100C500002689200A2F1C04211608168082907D1A0
:100C600001688900A1F1C0410A6842F040020A60AF
:100C7000416BD1E9002342EA03128B688C891B0285
:100C800043EA04431A430B8A42EA03520B7D896903
:100C900042EA03620A4301688900A1F1C0414A6047
:100CA000816AB1F5804F08D000686FF07041800014
:100CB000A0F1C040C0F8041110BD816BD1E9002340
:100CC00042EA03128B680C8A1B0243EA04531A435C
:100CD0000B7D896942EA036200680A438000A0F143
:100CE000C040C0F8042110BDF8B501217C2000F0FF
:100CF0007DFA4020ADF8000010208DF80300032499
:100D00008DF8024069462E4800F060F842F2480033
:100D10002C4DADF800006946284600F057F8012038
:100D2000294EADF800006946304600F04FF8022029
:100D3000ADF800006946304600F048F84CF23370D8
:100D4000ADF800008DF8024018208DF803006946C8
:100D5000284600F03BF84FF68070ADF80000694679
:100D6000304600F033F88020ADF800006946284690
:100D700000F02CF8E814ADF800006946284600F0B1
:100D800025F88021284600F074F84CF2030128462B
:100D900000F06FF84FF4F061304600F06AF801217E
:100DA000304600F064F80221304600F060F810216F
:100DB000284600F05EF82021284600F05AF8F8BDD9
:100DC000001001400014014000180140F0B5CA783D
:100DD000002502F00F03D20601D58A7813430A7862
:100DE0004FF00F0E12F0FF0F4FF001021CD00468FD
:100DF0000F8802FA05F63740B74211D14FEA850C49
:100E00000EFA0CF724EA070703FA0CF43C43CF78F8
:100E1000282F02D0482F02D002E0466100E0066190
:100E20006D1C082DE4D304600C88FF2C1ED9446887
:100E30005FF0000606F1080702FA07F50F882F4059
:100E4000AF420FD14FEA860C0EFA0CF7BC4303FAFF
:100E50000CF73C43CF78282F00D14561CF78482F3D
:100E600000D10561761C082EE4D34460F0BD4161D9
:100E7000704701617047FEE70020064A034645F6C9
:100E80005C5100BF22F81030401C80B28842F9D378
:100E9000704700002000002010B50021202000F045
:100EA00081F90021212000F07DF90021502000F07F
:100EB00079F9EE21512000F075F90021522000F05F
:100EC00071F96321532000F06DF94FF0C0412220E9
:100ED0000880064B0649002045F65C5233F8104066
:100EE0000C80401C9042F9DB10BD00002000002067
:100EF0000000026010B500F01BF90121002000F095
:100F000049F90A20FFF75BFD3021152000F042F976
:100F10004021112000F03EF941F22861102000F03C
:100F200039F90021122000F035F941F24D0113206A
:100F300000F030F90A20FFF742FD1021122000F0E6
:100F400029F90A20FFF73BFD42F22061102000F052
:100F500021F943F24D41132000F01CF90A20FFF75C
:100F60002EFD4FF48071012000F014F94FF4407110
:100F7000022000F00FF941F23001032000F00AF9DD
:100F800040F20461082000F005F90021092000F07A
:100F900001F908210A2000F0FDF80221412000F0AB
:100FA000F9F84FF41C51602000F0F4F801216120A1
:100FB00000F0F0F84FF4C171902000F0EBF801213F
:100FC000932000F0E7F81021A32000F0E3F80A20B6
:100FD000FFF7F5FC0021302000F0DCF840F2025170
:100FE000312000F0D7F840F20731322000F0D2F87B
:100FF00040F20531332000F0CDF80421342000F018
:10100000C9F840F20241352000F0C4F840F20771FF
:10101000362000F0BFF840F20351372000F0BAF854
:1010200041F205531946382000F0B4F8194639202A
:1010300000F0B0F80A20FFF7C2FC0121072000F001
:10104000A9F80A20FFF7BBFC2121072000F0A2F835
:101050002321072000F09EF80A20FFF7B0FC33217F
:10106000072000F097F80A20FFF7A9FC40F233119F
:10107000072000F08FF84FF0C04122200880064A78
:101080000021064B4FF49634116019801068401C03
:101090001060A042F9D310BD0000002000000260E3
:1010A000F0B51746059E0D460446E8283AD8B5F532
:1010B000987F37D80146502000F074F8611D512008
:1010C00000F070F82946522000F06CF805F10B0191
:1010D000532000F067F82146202000F063F82946ED
:1010E000212000F05FF84FF0C04122200880203F0F
:1010F000F9B20D4A9DB201EB41010C4B002002EB0D
:101100008104B6B2225C0021D70701D01D8000E027
:101110001E80491C5208C9B20629F5D3401CC0B232
:101120000C28EFD3F0BD0000D41F000800000260BF
:1011300070B5094C02212046FFF799FE074D28465D
:10114000FFF73DFC02212046FFF793FE2846BDE84D
:101150007040FFF734BC000000180140FFFFAF00F3
:101160002DE9F84398461546894606460024089F0F
:101170000AE000BF06EBC400434649466D1C0097D9
:10118000FFF78EFF641CE4B22A78002AF2D1BDE892
:10119000F88300004FF0C042108001480180704782
:1011A000000002604FF0C04210800148018070478B
:1011B0000000026001EB0113C3EB01210844024966
:1011C00021F810207047000020000020FEE7704743
:1011D00070470000044A0029516901D0014300E032
:1011E000814351617047000000100240044A002909
:1011F000916901D0014300E0814391617047000093
:101200000010024030B51F494A6812F00C031E4A14
:1012100003D0042B01D0082B21D002604A680F2391
:101220001A4C03EA1212A35C0268DA4042604B686F
:10123000072505EA1323E35C22FA03F383604B6876
:1012400005EAD323E35CDA40C2604968032303EA7A
:101250009131231F595CB2FBF1F1016130BD4A6845
:10126000022302F4701203EB92424B6813F4803FA6
:1012700002D04B689B0301D5054B00E0024B5A435B
:10128000CBE700000010024000127A000C000020A2
:1012900000093D002DE9FC5F070011D00846FFF76B
:1012A000CBF9FFF7EBF9314A314BFFF7E4F80022B5
:1012B000304BFFF752F9FFF7F4F90026019050E0A8
:1012C0000020BDE8FC9F0198FFF7D8F90446009183
:1012D00000F028FE07EBC60581468846E869FFF75F
:1012E000CDF94A464346FFF7C6F88246894620466E
:1012F000009900F061FD83468846A869FFF7BEF9B2
:101300005A464346FFF7B7F852464B46FFF7ADF84B
:10131000FFF7C7F983462046009900F04DFD81464E
:101320008846E869FFF7AAF94A464346FFF7A3F85B
:10133000814688462046009900F0F4FD04468A461E
:10134000A869FFF79BF922465346FFF794F84A46EF
:101350004346FEF7E9FFFFF7A4F9C5E906B0761C9E
:10136000F6B27878B042AED80120AAE76E861BF0BC
:10137000F921094000806640704700000CB500214B
:10138000264801910091026842F4803202604FF4D5
:10139000A063026802F400320092019A521C01928A
:1013A000009A12B9019A9A42F3D10268920333D596
:1013B000012100911A490A6842F010020A600A6885
:1013C00022F003020A600A6842F002020A604168E1
:1013D000416041684160416841F480614160416819
:1013E00021F47C114160416841F4E81141600168D9
:1013F00041F08071016001688901FCD5416821F0EC
:1014000003014160416841F0020141604168C1F35C
:1014100081010229FAD10CBD0091FEE700100240C3
:101420000020024010B500F03DF84FF0E0200169C7
:1014300041F00101016110BD4FF0E020016921F090
:1014400001010161FFF7C4BA4FF0E02104280869E7
:1014500003D020F004000861704740F00400FAE770
:10146000704700000C48016841F0010101604168CB
:101470000A4A114041600168094A1140016001684F
:1014800021F480210160416821F4FE0141600021C6
:101490008160FFF773BF0000001002400000FFF8FA
:1014A000FFFFF6FE10B586B06846FFF7ABFE4FF0C3
:1014B000E024206920F0010020616FF00400FFF7B4
:1014C000C3FF6FF07F406061206920F0020020615F
:1014D0000020A06106B010BDFEE700000FB4084B6D
:1014E00010B504A902AA039800F04CFB044602A917
:1014F000002000F05BFC204610BC5DF814FB0000EF
:10150000AD1D0008490050EAC12018BF04204A0D53
:1015100018BF40F0010040F2FF72B2EB515F08BF0C
:1015200040F00200012808BF052070472DE9F74F61
:10153000144696B00021C4E902111799089121F0D0
:101540000045CA498D4206DC1799C4E9000119B06B
:101550000020BDE8F08FC649DFF818A3A9423CDDA2
:101560000899C54E0029C54FC54A1799534619DD3C
:10157000FEF77BFF554506D0C24AC34BFEF775FF09
:10158000C4E900010AE04FF0D352BF4BFEF76DFFF4
:1015900032463B46FEF769FFC4E9000119B001205D
:1015A000BDE8F08FFEF7C0FE554506D0B54AB64BF4
:1015B000FEF7BAFEC4E900010AE04FF0D352B24B85
:1015C000FEF7B2FE32463B46FEF7AEFEC4E900012E
:1015D00019B04FF0FF30BDE8F08FAC49A942179920
:1015E00078DB21F000488346A94AAA4B4146FEF722
:1015F00042FF0022A84BFEF797FEFFF7BFF90990C4
:10160000FFF79EF906460F469D4A5346FEF733FF05
:101610005A464346FEF72CFF80468A46994A9A4B23
:1016200030463946FEF727FF2A0D01250B92424628
:101630005346FEF71DFF032DC4E9000139D00B9876
:10164000C1F30A51401A05EB45111139814230DAD4
:101650009248C346784400EB0510CDF81CA00C90CE
:10166000D0E9002330463946FEF705FFCDE90201F7
:1016700002460B4658460799FEF7F7FE80468A4613
:1016800002460B4658460799FEF7EFFEDDE90223B6
:10169000FEF7EBFE83460C9803913946D0E902230E
:1016A0003046FEF7E8FE5A46039BFEF7DEFE6D1C51
:1016B000BDE708980028A2BF099819B0BDE8F08FCF
:1016C000616881F000416160099819B04042BDE84D
:1016D000F08FFFE7C1F3130141F480110E911799C8
:1016E000C1F30A51A1F2F532511102F01F08C8F1FD
:1016F0002002129200220C920D92694A7A4402EB67
:10170000810101F1140C0DA95FF00607DCF800203F
:10171000DCF8045002FA08F3129AD1F800A025FA76
:1017200002F21A430E9BA2FB0356A2FB00329A441C
:1017300015449A4534BF4FF0010B4FF0000B51F8A0
:10174000043C05EB0B0E7344954234BF012200228A
:101750001644BBF1000F02D0AB4202D903E0AB420A
:1017600001D2012200E0002241F808A93244E1E858
:1017700001237F1EACF1040CC8D10898DDE90A658D
:1017800000F10050800F11900898099F8000FFF72A
:10179000D7F880468A463846FFF7E3F86FF01D0217
:1017A000FFF794F8074630460591FFF7DAF86FF037
:1017B0003D02FFF78BF8CDE903102846FFF7D1F87B
:1017C0006FF05D02FFF782F8064602460B46019174
:1017D000DDE90310FEF7A8FD3A46059BFEF7A4FDE0
:1017E00042465346FEF7A0FD00200D468346424682
:1017F0005346FEF73AFE3A46059BFEF736FEDDE914
:101800000332FEF732FE3246019BFEF731FEDFF86F
:101810009880244A4346FEF72EFE06460F46234A8A
:10182000234B58462946FEF726FE32463B46FEF736
:101830007BFD0F4606464FF0A842434658462946D0
:10184000FEF719FE32463B46FEF76EFD179A12F080
:10185000004F04D0119A81F0004152421192C4E924
:101860000001119819B0BDE8F08F0000FB21E93F9D
:101870007CD90240FB21F93F7370032E8A19A33BE8
:10188000000040543163621A61B4D03DFB213941FC
:1018900083C8C96D305FE43F0000E03F700E000078
:1018A000F80D0000182D4454FB21F93D3326A611F4
:1018B000460B113C2DE9FF4D21F0004807460C4630
:1018C000B8F1795F08DAFFF759F8002801BF002066
:1018D000324904B0BDE8F08D3A4623461046194619
:1018E000FEF7C9FD054602462D480E460B46062169
:1018F000784400F05DF82A463346FEF7BCFDDDE98A
:10190000022382468B4638462146FEF7B4FD044644
:101910000F4652465B4628463146FEF7ACFD22464E
:101920003B46FEF7A2FD07468A464FF0FF322846A7
:101930003146FEF7CBFF1B4A90450ADA3A4653463A
:10194000FEF793FD04B00022BDE8F04D134BFEF707
:101950008FBD154A4245A8BFA8F500154FF00004F9
:10196000B8BF124D22462B46FEF77FFD064688463D
:1019700022462B4600200949FEF777FD04460D4616
:101980003A46534630464146FEF76FFD04B02246C4
:101990002B46BDE8F04DFEF76BBD00000000F03FA8
:1019A000A40B00003333D33F0000E93F0000D23FD7
:1019B0002DE9F0414F1E00EBC7010446D1E90001BB
:1019C00015461E4637F006020DD02A463346FEF76E
:1019D00052FD7F1E04EBC703D3E90023FEF7A4FCEE
:1019E00037F00602F1D1022F25D0042F13D0062F95
:1019F00018BFBDE8F0812A463346FEF73CFDD4E926
:101A00000A23FEF791FC2A463346FEF734FDD4E95B
:101A10000823FEF789FC2A463346FEF72CFDD4E95D
:101A20000623FEF781FC2A463346FEF724FDD4E95F
:101A30000423FEF779FC2A463346FEF71CFDD4E961
:101A40000223FEF771FC2A463346FEF714FDD4E963
:101A50000023BDE8F041FEF767BC00002DE9FF4D13
:101A6000054621F0004084B00C46B0F1795F0BDAF6
:101A70002846FFF747FD042808BF00F065F8284610
:101A800008B02146BDE8F08D2A460B461046FEF709
:101A9000F2FC06460F462A462346FEF7ECFC80463B
:101AA00026488A4632463B4605217844FFF780FFA8
:101AB00083461098029160B3214A224B404651461A
:101AC000FEF7D9FCCDE900015A4640465146029B3B
:101AD000FEF7D1FC82468846DDE906014FF0FF3271
:101AE000FEF7F4FE52464346FEF7BFFC32463B4645
:101AF000FEF7C1FCDDE90623FEF7B7FCDDE90023B4
:101B0000FEF7B3FC08B02A462346BDE8F04DFEF7C9
:101B1000AFBC0B465A4630463946FEF7ACFC084A85
:101B2000084BFEF701FC42465346FEF7A4FC08B002
:101B30002A462346BDE8F04DFEF7F6BBE20A000058
:101B4000495555555555C5BF024A00201107FEF7A6
:101B5000BDBE000001FDFFFF02E008C8121F08C162
:101B6000002AFAD170477047002001E001C1121F1E
:101B7000002AFBD17047000001490860704700004F
:101B80001C0000202DE9FF4F8BB09A460F460446FB
:101B9000002606E025280BD052460D999047641C7C
:101BA000761C20780028F5D10FB03046BDE8F08FC4
:101BB0000025A94601217C4A00E0054314F8013FB5
:101BC000203B01FA03F01042F7D120782E2817D1DC
:101BD00014F8010F45F004052A280ED06FF02F02EB
:101BE0002078A0F1300109290AD809EB890102EB1C
:101BF000410100EB0109641CF2E757F8049B641CE7
:101C000020786C280DD004DC4C2812D06A2811D121
:101C100004E074280DD07A280CD10AE045F40015B0
:101C200007E0617845F48015814202D1641C05F516
:101C30008015641C207869283ED006DC0028B3D0CB
:101C400063280BD0642804D136E0732810D075289F
:101C50005AD052460D999047761CA3E017F8040B12
:101C60008DF8000000208DF80100E846012003E017
:101C700057F8048B4FF0FF3069074FF0000501D48F
:101C80000AE06D1C4D450DDA8542FADB18F80510A7
:101C90000029F6D106E06D1C8542FCDB18F8051022
:101CA0000029F8D12E4404E018F8010B52460D9992
:101CB00090476D1EF8D275E000200A90C5F30250DF
:101CC0004FF00A0B02280AD001CFC11700290CDA05
:101CD0000023D0EB030063EB01012D2208E0FF1D80
:101CE00027F00707F7E80201F0E72A0504D52B22C1
:101CF0008DF82420012203E0EA070FD02022F7E725
:101D00000DF12008089218E000200A90C5F3025057
:101D10004FF00A0B022803D001CF00210022EFE789
:101D2000FF1D27F00707F7E80201F7E75A460A9B6D
:101D3000FEF7E8FC303208F8012D50EA0102F5D137
:101D4000ADEB080000F1200B680701D44FF001094A
:101D5000D94502DDA9EB0B0000E0002081460025FB
:101D600006E009A85246405D0D9990476D1C761C0F
:101D700008988542F5DB04E0302052460D999047E3
:101D8000761CB9F10001A9F10109F5DC05E018F8AC
:101D9000010B52460D999047761CBBF10001ABF147
:101DA000010BF4DC641CFCE6092801000A68531CE2
:101DB0000B6010707047000000B5284B21F0004206
:101DC00087B09A42DCBF0022134631DD244B9A4291
:101DD0000DD168B94FF00100FFF7CEFE002207B029
:101DE0001346104611465DF804EBFEF7B6BB06DB62
:101DF00007B04FF001025DF804EBFEF767BD02AAE1
:101E0000FFF794FB10F0030104BF0DF1080C9CE8F0
:101E10000F000DD0012001290ED0022914D00DF1A0
:101E2000080C00909CE80F00FFF718FE07B000BDFB
:101E3000FFF740FD07B000BD0DF1080C00909CE8D5
:101E40000F00FFF70BFE05E00DF1080C9CE80F00FA
:101E5000FFF730FD07B081F0004100BDFB21E93FF5
:101E60000000F07FA8B04022274917A8FEF782F9AA
:101E7000FFF7F8FA01210802FFF7ACF9FEF734FF8B
:101E8000FEF796FEFFF736F801208DF804000820D3
:101E90008DF805005A200290462003901F200690DE
:101EA000002017AA0DF1040102EBC00501EBC003ED
:101EB000D5E90045401CC0B2C3E906450828F3D364
:101EC000124D134E00244FF4784700BFFFF7AAFAD3
:101ED000FEF7D2FF01A8FEF719FE022101A8FFF7C5
:101EE000D9F9FEF7D9FFFFF7A7FA286809A1B6FBD1
:101EF000F0F20B48FFF7F2FA0A213B46084A08467F
:101F00000094FFF72DF9E1E75824000804000020B1
:101F100040420F0020256C752066707300000000A1
:101F2000D8BA002000B5294B21F0004287B09A4270
:101F300003DC00221346009233E0254B9A420DD178
:101F400068B94FF00100FFF717FE002207B01346F3
:101F5000104611465DF804EBFEF7FFBA06DB07B04A
:101F60004FF001025DF804EBFEF7B0BC02AAFFF7E8
:101F7000DDFA10F003014FF001000DD0012914D05B
:101F800002291AD00DF1080C9CE80F00FFF792FC13
:101F900007B081F0004100BD0DF1080C00909CE8F5
:101FA0000F00FFF75BFD07B000BD0DF1080C9CE8CA
:101FB0000F00FFF77FFC07B000BD0DF1080C00908B
:101FC0009CE80F00FFF74AFDE2E70000FB21E93F34
:101FD0000000F07F00000000000000000000000092
:101FE00000000404040404040004000000140A0AAD
:101FF0000000000000000000000014143F140A3F1D
:102000000A0A000000041E1505060C14150F040032
:10201000000012150D0A142C2A1200000000040AF8
:102020000A1E15150936000000020201000000001A
:102030000000000000201008080808080810200010
:102040000002040808080808080402000000000450
:10205000150E0E150400000000000404041F040403
:102060000400000000000000000000000002020167
:1020700000000000001F0000000000000000000041
:10208000000000000002000000100808080404021C
:102090000202010000000E1111111111110E0000B9
:1020A0000000040604040404040E000000000E11E5
:1020B00011080402011F000000000E11100C101086
:1020C000110E00000000080C0A0A091E0818000082
:1020D00000001F01010F1010110E000000000E097A
:1020E000010F1111110E000000001F090804040463
:1020F0000404000000000E11110E1111110E000059
:1021000000000E1111111E10120E00000000000040
:1021100004000000000400000000000000040000B3
:10212000000404000020100804020408102000002D
:10213000000000001F00001F000000000002040853
:10214000102010080402000000000E111108040401
:102150000004000000000E111915151D011E0000DD
:10216000000004040C0A0A1E1233000000000F12C3
:10217000120E1212120F000000001E1101010101C7
:10218000110E000000000F1212121212120F0000A6
:1021900000001F120A0E0A02121F000000001F1288
:1021A0000A0E0A020207000000001C120101391188
:1021B000120C000000003312121E12121233000023
:1021C00000001F0404040404041F000000003E0873
:1021D0000808080808090700000037120A060A0A5A
:1021E000123700000000070202020202223F000034
:1021F00000001B1B1B1B15151515000000003B12D2
:1022000016161A1A1217000000000E1111111111E2
:10221000110E000000000F12120E02020207000051
:1022200000000E1111111117190E180000000F12E5
:10223000120E0A121237000000001E1101060810CB
:10224000110F000000001F1504040404040E000018
:102250000000331212121212120C0000000033128E
:10226000120A0A0C0404000000001515150E0A0AD3
:102270000A0A000000001B0A0A04040A0A1B0000E4
:1022800000001B0A0A040404040E000000001F09D9
:1022900008040402121F0000001C040404040404C7
:1022A00004041C00000202020404080808100000D4
:1022B000000E08080808080808080E0000040A00B4
:1022C000000000000000000000000000000000000E
:1022D0000000003F000400000000000000000000BB
:1022E00000000000000C121C123C00000000030261
:1022F000020E1212120E000000000000001C12025A
:10230000021C000000001810101C1212123C0000E9
:1023100000000000000C121E021C00000000380427
:10232000041E0404041E000000000000003C120C07
:10233000021E221C00000302020E121212370000BD
:102340000000040000060404040E00000000080061
:10235000000C08080808080700000302023A0A0EE9
:10236000123700000000070404040404041F0000E6
:1023700000000000000F15151515000000000000FA
:10238000000F12121237000000000000000C1212A1
:10239000120C000000000000000F1212120E0207C3
:1023A00000000000001C1212121C10380000000077
:1023B000001B06020207000000000000001E020CC5
:1023C000101E000000000004040E040404180000A5
:1023D00000000000001B1212123C00000000000070
:1023E0000037120A0C040000000000000015150E52
:1023F0000A0A000000000000001B0A040A1B00007B
:10240000000000000037120A0C0404030000000062
:10241000001E0804041E000000180808080408082C
:102420000808180008080808080808080808080824
:10243000000604040408040404040600022518002D
:102440000000000000000000320000003200000028
:10245000140000006400000000000442000040C0BE
:1024600000001041000090C1000040C1000010C1F8
:102470000000A8C1000040C1000010C10000C04021
:10248000000070C100007041000040C00000D84151
:102490000000A8410000A8414C5555555555A53F91
:1024A0007751C1166CC156BF9015CB19A001FA3EE9
:1024B000AD529C804F7E92BEC4B1B4BD9EEE213E13
:1024C000D43888BEE9FAA8BD00004054FB21F93F8A
:1024D0003163621A61B4D03D0000601A61B4D03D2E
:1024E0007370032E8A19A33B0000002E8A19A33BA8
:1024F000C14920259A837B390000000000000000BC
:102500006E83F9A22915444ED15727FCC0DD34F55E
:10251000999562DB4190433CAB6351FE61C5BBDEE4
:102520003A6E24B7E0D24D42EA2E49061C92D109F8
:102530001CEB1DFE3EA729B1F53582E88444BB2E75
:1025400026709CE9417E5FB439D69139F4395383C2
:102550008B5F849C3B28F9BDFF97F81F0F9805DE21
:102560008B112FEF1F6D0A5ACF7E366DB709CB271F
:10257000663F464F2DEA5F9EC7BA27757BF1E5EBB4
:10258000F739073DEA92528AB15FFB6B085D8D1FF8
:10259000A6F810111111813FD561C119A0012ABF00
:1025A0007DFEB157E31DC73EEB9C2B8AE6E55ABE84
:1025B0007CD5CF5A3AD9E53DD82500080000002047
:1025C00020000000581B0008F8250008200000200B
:1025D000D0BC0000681B00080000000000000000E4
:1025E00002040608000000000102030401020304C3
:0825F0000607080900000000C5
:0400000508000131BD
:00000001FF
