:020000040800F2
:10000000F0C8002045030008A5030008A503000868
:10001000A5030008A5030008A503000800000000D0
:10002000000000000000000000000000A503000820
:10003000A503000800000000A50300083501000822
:10004000A5030008A5030008A5030008A5030008F0
:10005000A5030008A5030008A5030008A5030008E0
:10006000A5030008A5030008A5030008A5030008D0
:10007000A5030008A5030008A5030008A5030008C0
:10008000A5030008A5030008A5030008A5030008B0
:10009000A5030008A5030008A5030008A5030008A0
:1000A000A5030008A5030008A5030008A503000890
:1000B000A5030008A5030008A5030008A503000880
:1000C000A5030008A5030008A5030008A503000870
:1000D000A5030008A5030008A5030008A503000860
:1000E000A5030008A5030008A5030008A503000850
:1000F000A5030008A5030008A5030008A503000840
:10010000A5030008A5030008A5030008A50300082F
:10011000A5030008A5030008A5030008A50300081F
:10012000A5030008A5030008A5030008A50300080F
:100130005FF808F180B400AF064B1B68002B04D0B9
:10014000044B1B685A1E034B1A60BD465DF8047BC6
:10015000704700BF0000002080B596B000AF0223BA
:100160003B6000237B600523BB600023FB60002312
:100170003B6100237B614FF08053BB610023FB6137
:1001800000233B6208237B621023BB620023FB62D7
:1001900000237B630023BB630023FB634FF4805386
:1001A0003B6400237B640023BB640023FB643B4669
:1001B0003B653B467B6507F11C03184600F0F6F8EB
:1001C0000020012100F08CF95837BD4680BD00BFEA
:1001D00080B500AF154B154A126842F001021A6053
:1001E000124A124B5968124B0B4053600F4A0F4B87
:1001F0001B6823F0847323F4803313600B4B0B4A8A
:10020000126822F480221A60084B084A526822F4CD
:10021000FE025A60054B4FF41F029A6000F00CF882
:10022000044B4FF000629A6080BD00BF0010024096
:100230000000FFF800ED00E080B500AF00F002F82C
:1002400080BD00BF80B483B000AF00237B6000237B
:100250003B603A4B394A126842F480321A60374B9D
:100260001B6803F400333B607B6801337B603B68B1
:10027000002B03D17B68B3F5A06FF0D12F4B1B6827
:1002800003F40033002B02D001233B6001E0002384
:100290003B603B68012B4BD1294B294A126842F045
:1002A00010021A60264B264A126822F003021A60D6
:1002B000234B234A126842F002021A601F4B1F4A66
:1002C00052685A601D4B1D4A52685A601B4B1B4AAC
:1002D000526842F480625A60184B184A526822F4FD
:1002E0007C125A60154B154A526842F4E8125A6063
:1002F000124B124A126842F080721A6000BF0F4B14
:100300001B6803F00073002BF9D00C4B0B4A5268AA
:1003100022F003025A60094B084A526842F0020276
:100320005A6000BF054B5B6803F00C03082BF9D142
:100330000C37BD465DF8047B704700BF00100240DB
:100340000020024080B582B000AF114B7B60114BA2
:100350003B6007E03B681A1D3A607A68111D7960BE
:1003600012681A603A680C4B9A42F3D30B480C4956
:100370004FF000028842B8BF40F8042BFFF6FAAFF6
:10038000FFF726FF00F0BAF90837BD4680BD00BF71
:10039000781200080000002000000020000000206B
:1003A000ECC4002080B400AFFEE700BF80B483B08F
:1003B00000AF78604FF020437A6812687968486827
:1003C0007968896808437968C96808437968096960
:1003D00008437968496908437968896908437968F5
:1003E000C96908437968096A08437968496A084312
:1003F0007968896A08437968C96A08437968096B2A
:10040000014343F822107B689B68082B0DD14FF005
:1004100020437A6812684FF020417868006851F8EC
:10042000201041F0400143F822104FF020437A6839
:10043000126801327968496B08687968496B4968C4
:10044000090108437968496B89680902084379689A
:10045000496BC968090408437968496B096909054A
:1004600008437968496B4969090608437968496B0B
:100470008969014343F822107B68DB6AB3F5804F3A
:1004800020D1164B7A6812687968896B0868796898
:10049000896B4968090108437968896B8968090291
:1004A00008437968896B0969090508437968896B8C
:1004B0004969090608437968896B8969014343F8EA
:1004C000221006E0054B7A6812686FF0704143F81D
:1004D00022100C37BD465DF8047B7047040100A074
:1004E00080B483B000AF78600B46FB70FB78002BC4
:1004F0000CD04FF020434FF02042796852F8212071
:1005000042F001017A6843F822100BE04FF02042DC
:100510004FF02043796853F82110054B0B40796860
:1005200042F821300C37BD465DF8047B704700BFB0
:10053000FEFF0F0080B489B000AF786039600023FF
:10054000FB6100233B610023BB610023FB600023B0
:100550007B610023BB603B68DB7803F00F03FB612A
:100560003B68DB7803F01003002B04D03B689B78DA
:10057000FA691343FB613B681B88DBB2002B44D054
:100580007B681B687B610023BB6138E0BB6901228B
:1005900002FA03F3FB603B681B881A46FB681340B2
:1005A0003B613A69FB689A4226D1BB699B00FB60BC
:1005B000FB680F2202FA03F3BB60BB68DB437A6976
:1005C00013407B61FB68FA6902FA03F37A6913430B
:1005D0007B613B68DB78282B05D1BB6901229A40FF
:1005E0007B685A6108E03B68DB78482B04D1BB6923
:1005F00001229A407B681A61BB690133BB61BB6908
:10060000072BC3D97B687A691A603B681B88FF2B6C
:1006100046D97B685B687B610023BB613AE0BB69BC
:100620000833012202FA03F3FB603B681B881A4679
:10063000FB6813403B613A69FB689A4227D1BB696A
:100640009B00FB60FB680F2202FA03F3BB60BB68F0
:10065000DB437A6913407B61FB68FA6902FA03F3B2
:100660007A6913437B613B68DB78282B05D1BB6932
:10067000083301229A407B685A613B68DB78482B3B
:1006800005D1BB69083301229A407B681A61BB69B6
:100690000133BB61BB69072BC1D97B687A695A609A
:1006A0002437BD465DF8047B704700BF80B483B03B
:1006B00000AF78600B467B807A887B681A610C37C4
:1006C000BD465DF8047B704780B483B000AF7860AE
:1006D0000B467B807A887B685A610C37BD465DF893
:1006E000047B704780B500AFFFF736FD00F0CAF815
:1006F00000F0D4F800F056F980BD00BFB0B5B0B03E
:1007000002AFFFF7EFFF414B07F16C041D460FCD21
:100710000FC40FCD0FC40FCD0FC495E80F0084E8B0
:100720000F0001233B7508237B755A23BB614623C9
:10073000FB611F233B85002387F8B73017E097F84C
:10074000B72097F8B7300332D20007F1B8010A4456
:10075000DB0007F1B8010B44A43A4C3B93E80300DB
:1007600082E8030097F8B730013387F8B73097F87D
:10077000B730072BE3D9264A07F10C0392E80300B0
:1007800083E80300234A3B1D92E8030083E803004B
:100790000523C7F8B0300623C7F8AC3000F076FC6C
:1007A000FB68A02B02DCFB68042B04DCD7F8B0301C
:1007B0005B42C7F8B0303B69782B05DDD7F8AC3029
:1007C0005B42C7F8AC3007E03B69042B04DCD7F888
:1007D000AC305B42C7F8AC30FA68D7F8B03013449D
:1007E000FB603A69D7F8AC3013443B61FB689AB2BE
:1007F0003B699BB24FF6FF710091104619460A22E1
:100800000A2300F0E3FC00F05BFCC7E728120008B5
:10081000681200087012000880B483B000AF02466E
:100820000B46FA71BB804FF0C043FA7992B21A803E
:10083000034BBA881A800C37BD465DF8047B7047BD
:100840000000026080B485B000AF0346FB80002347
:10085000FB810DE00023BB8102E0BB890133BB813A
:10086000BA8940F274439A42F7D9FB890133FB817C
:10087000FA89FB889A42EDD31437BD465DF8047BB4
:10088000704700BF80B500AF4FF48070012100F0C9
:1008900061FC7D20012100F07BFC80BD80B582B031
:1008A00000AF4023BB801023FB710323BB713B1DB2
:1008B0002E481946FFF73EFE42F24803BB803B1D1F
:1008C0002B481946FFF736FE0123BB803B1D294804
:1008D0001946FFF72FFE0223BB803B1D2548194612
:1008E000FFF728FE4CF23373BB800323BB71182340
:1008F000FB713B1D1E481946FFF71CFE4FF6807327
:10090000BB803B1D1B481946FFF714FE8023BB80AC
:100910003B1D17481946FFF70DFE4FF40063BB80DF
:100920003B1D13481946FFF705FE11488021FFF7CC
:10093000BDFE0F484CF20301FFF7B8FE0D484FF41F
:10094000F061FFF7B3FE0B480121FFF7BDFE094838
:100950000221FFF7B9FE06481021FFF7A7FE044861
:100960002021FFF7A3FE0837BD4680BD00100140DF
:10097000001401400018014080B483B000AF03466A
:10098000FB714FF0C043FA7992B21A80044B1B8876
:100990009BB218460C37BD465DF8047B704700BF1C
:1009A0000000026080B582B000AF0020FFF7E4FFD6
:1009B00003461A46D34B1A600020012100F012FBB7
:1009C000D04B49F225321A6000F022FBCD4B1A6859
:1009D00049F225339A4240F0DD80C82000F02EFB1A
:1009E0000020012100F0FEFAC82000F027FBC820FB
:1009F00000F024FB00F00CFBC82000F01FFBC82017
:100A000000F01CFB0020012100F0ECFA0A2000F0AD
:100A100015FB1520302100F0E5FA1120402100F0EF
:100A2000E1FA102041F2286100F0DCFA12200021E6
:100A300000F0D8FA132041F24D0100F0D3FA0A2059
:100A400000F0FCFA1220102100F0CCFA0A2000F08D
:100A5000F5FA102042F2206100F0C4FA132043F2AC
:100A60004D4100F0BFFA0A2000F0E8FA01204FF4EF
:100A7000807100F0B7FA02204FF4407100F0B2FA32
:100A8000032041F2300100F0ADFA082040F2046189
:100A900000F0A8FA0920002100F0A4FA0A20082199
:100AA00000F0A0FA4120022100F09CFA60204FF4EF
:100AB0001C5100F097FA6120012100F093FA902078
:100AC0004FF4C17100F08EFA9320012100F08AFAF0
:100AD000A320102100F086FA0A2000F0AFFA30209F
:100AE000002100F07FFA312040F2025100F07AFA42
:100AF000322040F2073100F075FA332040F2053120
:100B000000F070FA3420042100F06CFA352040F235
:100B1000024100F067FA362040F2077100F062FAF5
:100B2000372040F2035100F05DFA382041F20551C0
:100B300000F058FA392041F2055100F053FA0A202A
:100B400000F07CFA0720012100F04CFA0A2000F0A6
:100B500075FA0720212100F045FA0720232100F033
:100B600041FA0A2000F06AFA0720332100F03AFA2D
:100B70000A2000F063FA072040F2331100F032FA45
:100B80002020002100F02EFA212040F23F1100F039
:100B900029FAEFE15B4B1A6849F220339A4205D0FB
:100BA000584B1B68B3F5134F40F0AE800020002176
:100BB000FFF732FE01204FF48071FFF72DFE022077
:100BC0004FF4E061FFF728FE032041F21801FFF720
:100BD00023FE04200021FFF71FFE082040F202211F
:100BE000FFF71AFE09200021FFF716FE0A20002158
:100BF000FFF712FE0C200121FFF70EFE0D20002151
:100C0000FFF70AFE0F200021FFF706FE6420FFF722
:100C100019FE072040F20111FFF7FEFD6420FFF7E7
:100C200011FE10204FF48651FFF7F6FD1120072129
:100C3000FFF7F2FD12204FF48871FFF7EDFD13204E
:100C40004FF43061FFF7E8FD29200021FFF7E4FDB4
:100C50002B2044F21001FFF7DFFD50200021FFF7A9
:100C6000DBFD5120EF21FFF7D7FD52200021FFF7D8
:100C7000D3FD532040F23F11FFF7CEFD60204FF42B
:100C80001C51FFF7C9FD61200121FFF7C5FD6A2056
:100C90000021FFF7C1FD80200021FFF7BDFD81206D
:100CA0000021FFF7B9FD82200021FFF7B5FD832069
:100CB0000021FFF7B1FD84200021FFF7ADFD852065
:100CC0000021FFF7A9FD90201021FFF7A5FD92203C
:100CD0000021FFF7A1FD93200121FFF79DFD952045
:100CE0004FF48871FFF798FD97200021FFF794FDDE
:100CF00098200021FFF790FD072040F27311FFF7C5
:100D00008BFD37E108000020A64B1A6848F68913CE
:100D10009A4240F02F8100200121FFF77DFD322013
:100D2000FFF790FD03204AF6A401FFF775FD32207E
:100D3000FFF788FD0C200021FFF76EFD3220FFF742
:100D400081FD0D2040F60C01FFF766FD3220FFF714
:100D500079FD0E204FF42C51FFF75EFD3220FFF796
:100D600071FD1E20B021FFF757FD3220FFF76AFD0D
:100D7000012042F63F31FFF74FFD3220FFF762FDC1
:100D800002204FF4C061FFF747FD3220FFF75AFD04
:100D900010200021FFF740FD3220FFF753FD112006
:100DA00046F27001FFF738FD3220FFF74BFD0520BA
:100DB0000021FFF731FD3220FFF744FD062000211E
:100DC000FFF72AFD3220FFF73DFD16204EF61C717D
:100DD000FFF722FD3220FFF735FD17200321FFF733
:100DE0001BFD3220FFF72EFD072040F23311FFF7E5
:100DF00013FD3220FFF726FD0B200021FFF70CFD2D
:100E00003220FFF71FFD0F200021FFF705FD3220E4
:100E1000FFF718FD41200021FFF7FEFC3220FFF70D
:100E200011FD42200021FFF7F7FC3220FFF70AFDF9
:100E300048200021FFF7F0FC3220FFF703FD492096
:100E400040F23F11FFF7E8FC3220FFF7FBFC4A209D
:100E50000021FFF7E1FC3220FFF7F4FC4B200021DA
:100E6000FFF7DAFC3220FFF7EDFC44204FF46F412E
:100E7000FFF7D2FC3220FFF7E5FC45200021FFF709
:100E8000CBFC3220FFF7DEFC462040F23F11FFF79B
:100E9000C3FC3220FFF7D6FC302040F20771FFF789
:100EA000BBFC3220FFF7CEFC31204FF40171FFF77D
:100EB000B3FC3220FFF7C6FC32204FF40171FFF77C
:100EC000ABFC3220FFF7BEFC332040F20251FFF7AB
:100ED000A3FC3220FFF7B6FC342040F20751FFF7A5
:100EE0009BFC3220FFF7AEFC35204FF40171FFF779
:100EF00093FC3220FFF7A6FC36204FF40171FFF778
:100F00008BFC3220FFF79EFC372040F20251FFF7A6
:100F100083FC3220FFF796FC3A2040F20231FFF7C3
:100F20007BFC3220FFF78EFC3B2040F20231FFF7C2
:100F300073FC3220FFF786FC23200021FFF76CFCB6
:100F40003220FFF77FFC24200021FFF765FC3220D0
:100F5000FFF778FC25204FF40041FFF75DFC3220BD
:100F6000FFF770FC4F200021FFF756FC4E200021B8
:100F7000FFF752FC4FF0C04322221A8000237B600F
:100F800005E0002000F01EF87B6801337B607B6881
:100F9000B3F5963FF5D33220FFF754FC0837BD4632
:100FA00080BD00BF0800002080B483B000AF78602F
:100FB0004FF0C0437A6892B21A800C37BD465DF894
:100FC000047B704780B483B000AF7860044B7A68CC
:100FD00092B21A800C37BD465DF8047B704700BFA3
:100FE0000000026080B483B000AF786039604FF0D9
:100FF000C0437A6892B21A80044B3A6892B21A805F
:101000000C37BD465DF8047B704700BF00000260EE
:1010100080B500AF07480221FFF756FB064800F0F5
:101020000DF804480221FFF741FB034800F006F8E1
:1010300080BD00BF00180140FFFFAF0080B483B047
:1010400000AF786002E07B68013B7B607B68002B2F
:10105000F9D10C37BD465DF8047B704780B485B08C
:1010600000AFF860B9601346FB80BB68B42202FB96
:1010700003F2FB681A44044BF98823F81210143762
:10108000BD465DF8047B70470C00002080B483B03F
:1010900000AF0023FB8007E0FA88084B002123F80B
:1010A0001210FB880133FB80FA8846F26F239A42C4
:1010B000F2D90C37BD465DF8047B70470C00002068
:1010C00080B582B000AF204B1B78012B07D0022BDC
:1010D00009D0002B34D11C4B01221A7030E01A4B7E
:1010E00002221A702CE020200021FFF77BFF212034
:1010F0000021FFF777FF50200021FFF773FF5120F9
:10110000B321FFF76FFF52200021FFF76BFF532041
:101110008B21FFF767FF2220FFF746FF0023FB80AC
:1011200008E00A4BF9880A4A32F811201A80FB8835
:101130000133FB80FA8846F26F239A42F1D900BF4F
:101140000837BD4680BD00BF0400002000000260DB
:101150000C00002080B483B000AF78600B46FB70B9
:10116000FB78002B06D0094B084A51697A680A437C
:101170005A6106E0054B054A51697A68D2430A4034
:101180005A610C37BD465DF8047B70470010024081
:1011900080B483B000AF78600B46FB70FB78002B07
:1011A00006D0094B084A91697A680A439A6106E0B9
:1011B000054B054A91697A68D2430A409A610C3717
:1011C000BD465DF8047B70470010024080B584B0D6
:1011D00000AFF880B9807A803B80BB88FB6014E068
:1011E000FB88BB6008E03B8BB868F9681A46FFF7DC
:1011F00035FFBB680133BB60FA883B881A44BB6883
:101200009A42F0DCFB680133FB60BA887B881A44A1
:10121000FB689A42E4DC1037BD4680BD2020256C77
:10122000752066707300000000000442000040C09A
:1012300000001041000090C1000040C1000010C13A
:101240000000A8C1000040C1000010C10000C04063
:10125000000070C100007041000040C00000D84193
:101260000000A8410000A841320000003200000048
:081270001400000064000000FE
:0400000508000000EF
:00000001FF
